{
  "contractName": "EncryptIPFS",
  "abi": [
    {
      "constant": true,
      "inputs": [],
      "name": "reportCount",
      "outputs": [
        {
          "name": "",
          "type": "uint256"
        }
      ],
      "payable": false,
      "stateMutability": "view",
      "type": "function",
      "signature": "0x185c6f84"
    },
    {
      "constant": true,
      "inputs": [
        {
          "name": "",
          "type": "uint256"
        }
      ],
      "name": "reports",
      "outputs": [
        {
          "name": "id",
          "type": "uint256"
        },
        {
          "name": "ipfsHash",
          "type": "string"
        },
        {
          "name": "author",
          "type": "address"
        },
        {
          "name": "requester",
          "type": "address"
        }
      ],
      "payable": false,
      "stateMutability": "view",
      "type": "function",
      "signature": "0xc942adf7"
    },
    {
      "anonymous": false,
      "inputs": [
        {
          "indexed": false,
          "name": "id",
          "type": "uint256"
        },
        {
          "indexed": false,
          "name": "ipfsHash",
          "type": "string"
        },
        {
          "indexed": false,
          "name": "author",
          "type": "address"
        },
        {
          "indexed": false,
          "name": "requester",
          "type": "address"
        }
      ],
      "name": "ReportUploaded",
      "type": "event",
      "signature": "0x3037c6c97f525a48920ea68cd43b27d3fa14bdf21bd8035bab4cb9e2cd1d7586"
    },
    {
      "constant": false,
      "inputs": [
        {
          "name": "_ipfsHash",
          "type": "string"
        },
        {
          "name": "_requester",
          "type": "address"
        }
      ],
      "name": "uploadReport",
      "outputs": [],
      "payable": false,
      "stateMutability": "nonpayable",
      "type": "function",
      "signature": "0xdced6214"
    }
  ],
  "bytecode": "0x60806040526000805534801561001457600080fd5b50610727806100246000396000f3fe608060405260043610610057576000357c0100000000000000000000000000000000000000000000000000000000900463ffffffff168063185c6f841461005c578063c942adf714610087578063dced6214146101a8575b600080fd5b34801561006857600080fd5b50610071610290565b6040518082815260200191505060405180910390f35b34801561009357600080fd5b506100c0600480360360208110156100aa57600080fd5b8101908080359060200190929190505050610296565b60405180858152602001806020018473ffffffffffffffffffffffffffffffffffffffff1673ffffffffffffffffffffffffffffffffffffffff1681526020018373ffffffffffffffffffffffffffffffffffffffff1673ffffffffffffffffffffffffffffffffffffffff168152602001828103825285818151815260200191508051906020019080838360005b8381101561016a57808201518184015260208101905061014f565b50505050905090810190601f1680156101975780820380516001836020036101000a031916815260200191505b509550505050505060405180910390f35b3480156101b457600080fd5b5061028e600480360360408110156101cb57600080fd5b81019080803590602001906401000000008111156101e857600080fd5b8201836020820111156101fa57600080fd5b8035906020019184600183028401116401000000008311171561021c57600080fd5b91908080601f016020809104026020016040519081016040528093929190818152602001838380828437600081840152601f19601f820116905080830192505050505050509192919290803573ffffffffffffffffffffffffffffffffffffffff16906020019092919050505061039e565b005b60005481565b6001602052806000526040600020600091509050806000015490806001018054600181600116156101000203166002900480601f0160208091040260200160405190810160405280929190818152602001828054600181600116156101000203166002900480156103485780601f1061031d57610100808354040283529160200191610348565b820191906000526020600020905b81548152906001019060200180831161032b57829003601f168201915b5050505050908060020160009054906101000a900473ffffffffffffffffffffffffffffffffffffffff16908060030160009054906101000a900473ffffffffffffffffffffffffffffffffffffffff16905084565b60008251111515610417576040517f08c379a00000000000000000000000000000000000000000000000000000000081526004018080602001828103825260168152602001807f456d7074792068617368206e6f7420616c6c6f7765640000000000000000000081525060200191505060405180910390fd5b600080815480929190600101919050555060806040519081016040528060005481526020018381526020013373ffffffffffffffffffffffffffffffffffffffff1681526020018273ffffffffffffffffffffffffffffffffffffffff1681525060016000805481526020019081526020016000206000820151816000015560208201518160010190805190602001906104b2929190610656565b5060408201518160020160006101000a81548173ffffffffffffffffffffffffffffffffffffffff021916908373ffffffffffffffffffffffffffffffffffffffff16021790555060608201518160030160006101000a81548173ffffffffffffffffffffffffffffffffffffffff021916908373ffffffffffffffffffffffffffffffffffffffff1602179055509050507f3037c6c97f525a48920ea68cd43b27d3fa14bdf21bd8035bab4cb9e2cd1d758660005483338460405180858152602001806020018473ffffffffffffffffffffffffffffffffffffffff1673ffffffffffffffffffffffffffffffffffffffff1681526020018373ffffffffffffffffffffffffffffffffffffffff1673ffffffffffffffffffffffffffffffffffffffff168152602001828103825285818151815260200191508051906020019080838360005b838110156106155780820151818401526020810190506105fa565b50505050905090810190601f1680156106425780820380516001836020036101000a031916815260200191505b509550505050505060405180910390a15050565b828054600181600116156101000203166002900490600052602060002090601f016020900481019282601f1061069757805160ff19168380011785556106c5565b828001600101855582156106c5579182015b828111156106c45782518255916020019190600101906106a9565b5b5090506106d291906106d6565b5090565b6106f891905b808211156106f45760008160009055506001016106dc565b5090565b9056fea165627a7a7230582096c60e8254ee7d241914f027dfdbc6ec3f4437a1509b8d921f7fa40c142d7fb90029",
  "source": "pragma solidity ^0.5.0;\n\ncontract EncryptIPFS {\n  uint public reportCount = 0;\n  struct Report {\n        uint id;\n        string ipfsHash;\n        address author;\n        address requester;\n    }\n  mapping(uint => Report) public reports;\n  event ReportUploaded(\n        uint id,\n        string ipfsHash,\n        address author,\n        address requester\n    );\n  function uploadReport(string memory _ipfsHash, address _requester) public {\n      require(bytes(_ipfsHash).length > 0, \"Empty hash not allowed\");\n      reportCount ++;\n      reports[reportCount] = Report(reportCount, _ipfsHash, msg.sender, _requester);\n      emit ReportUploaded(reportCount, _ipfsHash, msg.sender, _requester);\n  }\n}",
  "sourcePath": "E:/BlockChain/3rd year project/minor-encrypting-pdf/src/contracts/EncryptIPFS.sol",
  "compiler": {
    "name": "solc",
    "version": "0.5.0+commit.1d4f565a.Emscripten.clang"
  },
  "schemaVersion": "3.0.1",
  "updatedAt": "2020-06-12T14:05:44.301Z",
  "devdoc": {
    "methods": {}
  },
  "userdoc": {
    "methods": {}
  }
}