{
  "contractName": "SendRequest",
  "abi": [
    {
      "constant": true,
      "inputs": [],
      "name": "requestCount",
      "outputs": [
        {
          "name": "",
          "type": "uint256"
        }
      ],
      "payable": false,
      "stateMutability": "view",
      "type": "function",
      "signature": "0x5badbe4c"
    },
    {
      "constant": true,
      "inputs": [
        {
          "name": "",
          "type": "uint256"
        }
      ],
      "name": "requests",
      "outputs": [
        {
          "name": "id",
          "type": "uint256"
        },
        {
          "name": "fileName",
          "type": "string"
        },
        {
          "name": "fileOwner",
          "type": "address"
        },
        {
          "name": "pubKey",
          "type": "string"
        },
        {
          "name": "requester",
          "type": "address"
        }
      ],
      "payable": false,
      "stateMutability": "view",
      "type": "function",
      "signature": "0x81d12c58"
    },
    {
      "anonymous": false,
      "inputs": [
        {
          "indexed": false,
          "name": "id",
          "type": "uint256"
        },
        {
          "indexed": false,
          "name": "fileName",
          "type": "string"
        },
        {
          "indexed": false,
          "name": "fileOwner",
          "type": "address"
        },
        {
          "indexed": false,
          "name": "pubKey",
          "type": "string"
        },
        {
          "indexed": false,
          "name": "requester",
          "type": "address"
        }
      ],
      "name": "RequestSent",
      "type": "event",
      "signature": "0xd3ba0e1c2a3209991e73348bd814691df519d86c3456df3ffe81064a65c19931"
    },
    {
      "constant": false,
      "inputs": [
        {
          "name": "_fileName",
          "type": "string"
        },
        {
          "name": "_fileOwner",
          "type": "address"
        },
        {
          "name": "_pubKey",
          "type": "string"
        }
      ],
      "name": "sendRequest",
      "outputs": [],
      "payable": false,
      "stateMutability": "nonpayable",
      "type": "function",
      "signature": "0x4f71996d"
    }
  ],
  "bytecode": "0x60806040526000805534801561001457600080fd5b50610a23806100246000396000f3fe608060405260043610610057576000357c0100000000000000000000000000000000000000000000000000000000900463ffffffff1680634f71996d1461005c5780635badbe4c146101db57806381d12c5814610206575b600080fd5b34801561006857600080fd5b506101d96004803603606081101561007f57600080fd5b810190808035906020019064010000000081111561009c57600080fd5b8201836020820111156100ae57600080fd5b803590602001918460018302840111640100000000831117156100d057600080fd5b91908080601f016020809104026020016040519081016040528093929190818152602001838380828437600081840152601f19601f820116905080830192505050505050509192919290803573ffffffffffffffffffffffffffffffffffffffff1690602001909291908035906020019064010000000081111561015357600080fd5b82018360208201111561016557600080fd5b8035906020019184600183028401116401000000008311171561018757600080fd5b91908080601f016020809104026020016040519081016040528093929190818152602001838380828437600081840152601f19601f820116905080830192505050505050509192919290505050610393565b005b3480156101e757600080fd5b506101f06107a6565b6040518082815260200191505060405180910390f35b34801561021257600080fd5b5061023f6004803603602081101561022957600080fd5b81019080803590602001909291905050506107ac565b60405180868152602001806020018573ffffffffffffffffffffffffffffffffffffffff1673ffffffffffffffffffffffffffffffffffffffff168152602001806020018473ffffffffffffffffffffffffffffffffffffffff1673ffffffffffffffffffffffffffffffffffffffff168152602001838103835287818151815260200191508051906020019080838360005b838110156102ed5780820151818401526020810190506102d2565b50505050905090810190601f16801561031a5780820380516001836020036101000a031916815260200191505b50838103825285818151815260200191508051906020019080838360005b83811015610353578082015181840152602081019050610338565b50505050905090810190601f1680156103805780820380516001836020036101000a031916815260200191505b5097505050505050505060405180910390f35b6000835111151561040c576040517f08c379a00000000000000000000000000000000000000000000000000000000081526004018080602001828103825260128152602001807f46696c65206e616d65207265717569726564000000000000000000000000000081525060200191505060405180910390fd5b3373ffffffffffffffffffffffffffffffffffffffff168273ffffffffffffffffffffffffffffffffffffffff16141515156104d6576040517f08c379a000000000000000000000000000000000000000000000000000000000815260040180806020018281038252602a8152602001807f417574686f72206f662066696c652063616e6e6f742062652073616d6520617381526020017f207265717565737465720000000000000000000000000000000000000000000081525060400191505060405180910390fd5b600080815480929190600101919050555060a06040519081016040528060005481526020018481526020018373ffffffffffffffffffffffffffffffffffffffff1681526020018281526020013373ffffffffffffffffffffffffffffffffffffffff168152506001600080548152602001908152602001600020600082015181600001556020820151816001019080519060200190610577929190610952565b5060408201518160020160006101000a81548173ffffffffffffffffffffffffffffffffffffffff021916908373ffffffffffffffffffffffffffffffffffffffff16021790555060608201518160030190805190602001906105db929190610952565b5060808201518160040160006101000a81548173ffffffffffffffffffffffffffffffffffffffff021916908373ffffffffffffffffffffffffffffffffffffffff1602179055509050507fd3ba0e1c2a3209991e73348bd814691df519d86c3456df3ffe81064a65c199316000548484843360405180868152602001806020018573ffffffffffffffffffffffffffffffffffffffff1673ffffffffffffffffffffffffffffffffffffffff168152602001806020018473ffffffffffffffffffffffffffffffffffffffff1673ffffffffffffffffffffffffffffffffffffffff168152602001838103835287818151815260200191508051906020019080838360005b838110156106fc5780820151818401526020810190506106e1565b50505050905090810190601f1680156107295780820380516001836020036101000a031916815260200191505b50838103825285818151815260200191508051906020019080838360005b83811015610762578082015181840152602081019050610747565b50505050905090810190601f16801561078f5780820380516001836020036101000a031916815260200191505b5097505050505050505060405180910390a1505050565b60005481565b6001602052806000526040600020600091509050806000015490806001018054600181600116156101000203166002900480601f01602080910402602001604051908101604052809291908181526020018280546001816001161561010002031660029004801561085e5780601f106108335761010080835404028352916020019161085e565b820191906000526020600020905b81548152906001019060200180831161084157829003601f168201915b5050505050908060020160009054906101000a900473ffffffffffffffffffffffffffffffffffffffff1690806003018054600181600116156101000203166002900480601f0160208091040260200160405190810160405280929190818152602001828054600181600116156101000203166002900480156109225780601f106108f757610100808354040283529160200191610922565b820191906000526020600020905b81548152906001019060200180831161090557829003601f168201915b5050505050908060040160009054906101000a900473ffffffffffffffffffffffffffffffffffffffff16905085565b828054600181600116156101000203166002900490600052602060002090601f016020900481019282601f1061099357805160ff19168380011785556109c1565b828001600101855582156109c1579182015b828111156109c05782518255916020019190600101906109a5565b5b5090506109ce91906109d2565b5090565b6109f491905b808211156109f05760008160009055506001016109d8565b5090565b9056fea165627a7a72305820006ffd6a82311fd93acb135a7b8acecfcdb1943f385d681dff9d3b9baf01b1b00029",
  "source": "pragma solidity ^0.5.0;\r\n\r\ncontract SendRequest {\r\n  uint public requestCount = 0;\r\n  struct Request {\r\n        uint id;\r\n        string fileName;\r\n        address fileOwner;\r\n        string pubKey;\r\n        address requester;\r\n    }\r\n  mapping(uint => Request) public requests;\r\n  event RequestSent(\r\n        uint id,\r\n        string fileName,\r\n        address fileOwner,\r\n        string pubKey,\r\n        address requester\r\n    );\r\n  function sendRequest(string memory _fileName, address _fileOwner, string memory _pubKey) public {\r\n      require(bytes(_fileName).length > 0, \"File name required\");\r\n      require(_fileOwner!=msg.sender, \"Author of file cannot be same as requester\");\r\n      requestCount ++;\r\n      requests[requestCount] = Request(requestCount, _fileName, _fileOwner, _pubKey, msg.sender);\r\n      emit RequestSent(requestCount, _fileName, _fileOwner, _pubKey, msg.sender);\r\n  }\r\n}",
  "sourcePath": "E:/BlockChain/3rd year project/minor-encrypting-pdf/src/contracts/SendRequest.sol",
  "compiler": {
    "name": "solc",
    "version": "0.5.0+commit.1d4f565a.Emscripten.clang"
  },
  "schemaVersion": "3.0.1",
  "updatedAt": "2020-06-12T14:05:44.309Z",
  "devdoc": {
    "methods": {}
  },
  "userdoc": {
    "methods": {}
  }
}